:080000000C94AD020C94E01F0A
:100008000C9400000C9400000C9400000C94000068
:100018000C9400000C9400000C9400000C94000058
:100028000C9400000C9400000C9400000C94DD0269
:100038000C9400000C943B030C9400000C940000FA
:100048000C9400000C9400000C9400000000C1C047
:1000580081C1400101C3C003800241C201C6C0067C
:10006800800741C70005C1C581C4400401CCC00C4C
:10007800800D41CD000FC1CF81CE400E000AC1CA0C
:1000880081CB400B01C9C009800841C801D8C018FC
:10009800801941D9001BC1DB81DA401A001EC1DE7C
:1000A80081DF401F01DDC01D801C41DC0014C1D46C
:1000B80081D5401501D7C017801641D601D2C0128C
:1000C800801341D30011C1D181D0401001F0C0305C
:1000D800803141F10033C1F381F240320036C1F67C
:1000E80081F7403701F5C035803441F4003CC1FC4C
:1000F80081FD403D01FFC03F803E41FE01FAC03A0C
:10010800803B41FB0039C1F981F840380028C1E83B
:1001180081E9402901EBC02B802A41EA01EEC02E7B
:10012800802F41EF002DC1ED81EC402C01E4C0246B
:10013800802541E50027C1E781E640260022C1E28B
:1001480081E3402301E1C021802041E001A0C0609B
:10015800806141A10063C1A381A240620066C1A67B
:1001680081A7406701A5C065806441A4006CC1AC4B
:1001780081AD406D01AFC06F806E41AE01AAC06A0B
:10018800806B41AB0069C1A981A840680078C1B8FB
:1001980081B9407901BBC07B807A41BA01BEC07E7B
:1001A800807F41BF007DC1BD81BC407C01B4C0746B
:1001B800807541B50077C1B781B640760072C1B28B
:1001C80081B3407301B1C071807041B00050C190DB
:1001D800819140510193C053805241920196C0567B
:1001E800805741970055C19581944054019CC05C4B
:1001F800805D419D005FC19F819E405E005AC19A0B
:10020800819B405B0199C059805841980188C0483A
:1002180080494189004BC18B818A404A004EC18E7A
:10022800818F404F018DC04D804C418C0044C1846A
:10023800818540450187C047804641860182C0428A
:10024800804341830041C181818040400E11110EDD
:10025800000000001027E80364000A0001000010F5
:1002680000011000010000000000D00F494014AE4A
:10027800073F1111113F6D616E75616C206D6F64E0
:10028800650065786974696E672E2E2E002020003F
:100298003230003A00736574207468652074696DA3
:1002A8006500656E746572696E672E2E2E2E00537A
:1002B80065742054696D65005365742044617465E4
:1002C80000536574204C61746974756465005365E6
:1002D80074204C6F6E6769747564650054696D6548
:1002E80020496E74657276616C2000206D696E75A8
:1002F800746573005365742054696D657A6F6E6513
:1003080000474D5420004872732E005365742050E6
:10031800616E656C2048656967687400202020203C
:10032800004D7472732E00536574204469737461B0
:100338006E6365004D6F64427573204944004D6FCC
:10034800646275732052617465200020203936304C
:10035800300020313932303000203338343030002A
:1003680020353736303000313135323030002042D8
:100378006175640043616C6962726174696F6E20B3
:100388004D6F646500656E746572696E67007469A7
:100398006D653A2000616E676C653A200073756E72
:1003A800726973653A200073756E7365743A20003C
:1003B8006E6578742074696D652F616E676C653A37
:1003C80000646174653A2000202F200020473A001D
:1003D800623A00206D696E757465732020002A20CA
:1003E8004D616E75616C204D6F6465202A20002078
:1003F800204E49474854204D4F4445202000616E07
:10040800673A20007461723A20006D6563682E2097
:100418006572726F72002A2053494E474C4520413D
:1004280058495320202A002A534F4C4152205452F5
:1004380041434B4552202A002A202020504C454158
:10044800534520202020202A002A20202020574100
:1004580049542020202020202A00746865207061DB
:100468006E656C200063616C6962726174696F6E9D
:10047800206D6F646500696E63203E20696E636855
:1004880020757000646563203E20696E636820648F
:100498006F776E007365742D3E20656E74657220EB
:1004A8006C6F77007368662D3E20656E74657220E8
:1004B80068696768006164633A2000536574205373
:1004C8007461727420416E676C6500737461727434
:1004D80020616E676C652000616363657074656494
:1004E800210053657420456E6420416E676C650079
:1004F800656E6420616E676C65200061636365707A
:100508007465642120007A65726F20616E676C657E
:1005180020007370616E20616E676C6520000100B9
:100528002D4E414E00494E46000080C00400020096
:100538006E02040060027202040074027602040073
:1005480078027A0201009703260502009B03320510
:100558000000F894EE27ECBBF1E0FBBFEBBFE5BF72
:10056800F8E1F1BDE1BD8DE0A2E0BB27ED938A95EE
:10057800E9F780E098E0A0E6ED930197E9F7E4E376
:10058800F5E085919591009761F0A591B591059059
:100598001590BF01F00105900D920197E1F7FB015D
:1005A800F0CFEFE5EDBFE8E0EEBFC0E6D2E00C9497
:1005B8008B24AA93BA93EA93FA93EFB7EA930E942B
:1005C800A02F1BB10CB1E12FEC7109F046C0E091EE
:1005D8002503F0E0EF5EFC4F0083A0912503AF5F99
:1005E800A0932503A43119F4E0E0E0932503A0913A
:1005F8002703AF5FA0932703A43129F4E0E0E09339
:100608002703689454F8A0912703A13061F4E0917E
:100618000703A0911103EA1729F0E0E0E09325030E
:10062800E09327031AC0A0912703A830B0F030E068
:10063800383060F4A32FB0E0A85DBC4FE32FF0E0A2
:10064800EF5EFC4FE081EC933F5FF2CFE0E0E09398
:100658002503E0932703689453F80E94A72F249654
:10066800E991EFBFF991E991B991A9911895AA93E8
:10067800EA93FA93EFB7EA93E0916403E030A1F0CC
:10068800E150E0936403E0916303F0E0EE5CFC4F1B
:10069800E081ECB9A0916303AF5FA0936303A0333B
:1006A80019F4E0E0E0936303E991EFBFF991E99170
:1006B800A9911895AA93A0916403A033E1F3F89443
:1006C800E0916403E03011F45D9917C0E091620392
:1006D800F0E0EE5CFC4FA881A083A0916203AF5FBD
:1006E800A0936203A03319F4E0E0E0936203E09181
:1006F8006403EF5FE093640302C0E881ECB9789487
:1007080021960895BA93AA930E94A02F2FEF3FEF46
:10071800EC81FD813197EC83FD833196A9F0AE81A0
:10072800BF81ED91AE83BF83E2271E2F232F33278E
:10073800A4E5B0E0F0E0EE0FFF1FEA0FFB1F0E94F8
:10074800262F2E273F27E4CFF9010E94A72F2896AE
:100758000895E0E0E0932703E0932603E09326035F
:10076800E0936403E0936203E09363030895EB2D41
:10077800F0E0E0936503F0936603A7E6B3E0EA2DA3
:10078800F0E0ED93FC93A9E6B3E0ED2DF0E0ED93F6
:10079800FC93ABE6B3E0E72DF0E0ED93FC93ADE618
:1007A800B3E0E62DF0E0ED93FC93E091CA02F091FE
:1007B800CB02E0936F03F0937003E091CC02F091C9
:1007C800CD02E0937103F0937203E091D202F091AD
:1007D800D302E0937303F0937403E091D802F0918D
:1007E800D902E0937503F0937603E0910503F09145
:1007F8000603E0937703F0937803E0910303F09105
:100808000403E0937903F0937A03E091F302F09103
:10081800F402E0938D03F0938E03E0919802F09137
:100828009902E0938F03F0939003A091D402B091C2
:10083800D502ECE3F0E00E949E2EE0939103F09342
:100848009203A091D402B091D502ECE3F0E00E94AB
:10085800D02EE0939303F09394030895BA93AA9348
:100868001A930A9301E010E0F8011981088126968D
:100878000895AE970E949E2F40E050E0E091290332
:10088800F0E0E330A0E0FA0709F0C8C000912B03BC
:100898001127D8011196DA9718F042E050E01AC2F1
:1008A80020912D033327D901A00FB11FDB9720F426
:1008B8002131E0E03E071CF043E050E00BC2E1E1EB
:1008C800F3E0FA93EA93A6E0B0E01CDFEA87FB873F
:1008D800A0911703F070B0E0EA17FB0741F4A0916C
:1008E8001803EB85F070B0E0EA17FB0719F043E056
:1008F80050E0F0C140E050E0949AE0912803EC8782
:10090800E0912903ED87E22FEE0FEE87E3E0F0E0B8
:10091800E887F987A2E0B0E00E944F2CE0E0EA8780
:10092800EB87AA85BB85A217B307C8F5E885F985C3
:10093800DE011C96EA0FFB1F0F01EA85FB85E00F1D
:10094800F11FA5E6B3E0EE0FFF1FAE0FBF1F0E9419
:10095800132F0E944A2ED001EC93E885F985319631
:10096800E887F987DE011C96EA0FFB1F0F01EA856D
:10097800FB85E00FF11FA5E6B3E0EE0FFF1FAE0FFA
:10098800BF1FEC91D001EC93E885F9853196E88793
:10099800F987EA85FB853196EA87FB87C2CFFE0196
:1009A8003C96FA93EA93F901EE0FFF1F3396DF01A5
:1009B800A9DEEA87FB87E885F985DE011C96AE0F7C
:1009C800BF1FEA85EC93E885F9853196DE011C9610
:1009D800AE0FBF1FEB85EC93F894E0E0EA87EB8756
:1009E800EE85F0E03596AA85BB85AE17BF0770F493
:1009F800EA85FB85DE011C96AE0FBF1FAC915ADE5F
:100A0800EA85FB853196EA87FB87EACF7894A2E3EB
:100A1800B0E00E944F2C94989CDE5CC1E430A0E0CA
:100A2800FA0709F0C8C000912B031127D8011196C5
:100A3800559718F042E050E04DC120912D0333271F
:100A4800D901A00FB11F559720F42131E0E03E07EE
:100A58001CF043E050E03EC1E1E1F3E0FA93EA9391
:100A6800A6E0B0E04FDEEA87FB87A0911703F0709D
:100A7800B0E0EA17FB0741F4A0911803EB85F0708A
:100A8800B0E0EA17FB0719F043E050E023C140E06B
:100A980050E0949AE0912803EC87E0912903ED87D0
:100AA800E22FEE0FEE87E3E0F0E0E887F987A2E0B7
:100AB800B0E00E944F2CE0E0EA87EB87AA85BB856F
:100AC800A217B307C8F5E885F985DE011C96EA0F79
:100AD800FB1F0F01EA85FB85E00FF11FADE8B3E0CE
:100AE800EE0FFF1FAE0FBF1F0E94132F0E944A2E4A
:100AF800D001EC93E885F9853196E887F987DE011E
:100B08001C96EA0FFB1F0F01EA85FB85E00FF11F1A
:100B1800ADE8B3E0EE0FFF1FAE0FBF1FEC91D001A1
:100B2800EC93E885F9853196E887F987EA85FB85AE
:100B38003196EA87FB87C2CFFE013C96FA93EA9387
:100B4800F901EE0FFF1F3396DF01DCDDEA87FB8733
:100B5800E885F985DE011C96AE0FBF1FEA85EC9388
:100B6800E885F9853196DE011C96AE0FBF1FEB852F
:100B7800EC93F894E0E0EA87EB87EE85F0E03596B1
:100B8800AA85BB85AE17BF0770F4EA85FB85DE0131
:100B98001C96AE0FBF1FAC918DDDEA85FB853196A3
:100BA800EA87FB87EACF7894A2E3B0E00E944F2C53
:100BB8009498CFDD8FC0E630A0E0FA0709F088C02E
:100BC80000912B031127D8011196DB9718F042E00A
:100BD80050E080C0A0912C03B0E0E0E0F1E00E947A
:100BE800812EDF01E0912D03F0E0EA0FFB1F9F014A
:100BF8002133E8EF3E0724F02031E7E23E071CF0FE
:100C080043E050E067C01A930A93D90127DEEE83C8
:100C1800FF83AE81BF81119719F447E050E05AC0B5
:100C2800E1E1F3E0FA93EA93A6E0B0E06BDDEA874E
:100C3800FB87A0911703F070B0E0EA17FB0741F4B7
:100C4800A0911803EB85F070B0E0EA17FB0719F0E4
:100C580043E050E03FC040E050E0949AE091280320
:100C6800EC87E0912903ED87E0912A03EE87E09174
:100C78002B03EF87E0912C03E88BE0912D03E98BA0
:100C8800E0912E03EA8BE0912F03EB8BA2E0B0E01A
:100C98000E944F2CF894E0E0EA87EB87AA85BB8591
:100CA800189770F4EA85FB85DE011C96AE0FBF1F0E
:100CB800AC9100DDEA85FB853196EA87FB87EECFAC
:100CC8007894A2E3B0E00E944F2C949842DD02C0D1
:100CD80041E050E0042E052AA9F1949AE0912803F6
:100CE800EC87E0912903E068ED87FE013E9640839A
:100CF800FE013C96FA93EA93A3E0B0E003DDEA87AD
:100D0800FB87EA85EF87EB85E88BF894E0E0EA87D4
:100D1800EB87AA85BB85159770F4EA85FB85DE010C
:100D28001C96AE0FBF1FAC91C5DCEA85FB853196DA
:100D3800EA87FB87EECF7894A2E3B0E00E944F2CBD
:100D4800949807DD0E94A52FE4960895AA931A9314
:100D58000A93EA81EE0FEE0FEE0FE0640E2F10E01B
:100D6800183068F40A930395EC81FD813196EC8381
:100D7800FD833197A4910E941C2B1F5FF1CF19812D
:100D88000881D6C50E943E2F2497AC85BD858E85E7
:100D98009F85A75FBF4F8F4F9F4FECE0F0E060E06B
:100DA80070E00E94C82EA889B9898A899B890E9407
:100DB800392EA9EFBFEF8FEF9FEF0E94862EDF013C
:100DC800CB01E4E0F0E060E070E00E94C82E7F9381
:100DD8006F93FF93EF93EC85FD856E857F85A3E187
:100DE800B1E080E090E00E94862EDF01CB01E9E0CF
:100DF800F0E060E070E00E94C82EAF91BF918F9143
:100E08009F910E94392EA885B9858A859B850E9465
:100E1800392E0E94342FE889F9896A897B89AFE6DF
:100E2800B1E080E090E00E94862E0E942F2F0E9461
:100E3800392E0E94342F0E94C52CDF01CB01E8E334
:100E4800FAE562E379E40E94482F0E94F82C7F9328
:100E58006F93FF93EF93AC81BD818E819F81E0E01A
:100E6800F0E060EC71E40E949D2DAF91BF918F91ED
:100E78009F910E94FF2C649608950E943E2F289708
:100E8800E885F9856A857B85A0E0B0E080E09FE38E
:100E98000E944F2DDF01CB01E0916002F0916102C9
:100EA80060916202709163020E949D2DEC83FD8324
:100EB8006E837F83E0916002F0916102609162022B
:100EC80070916302A0E0B0E080E090E40E944F2DB2
:100ED8007F936F93FF93EF93EC81FD816E817F8108
:100EE8000E948E2CAC81BD818E819F810E94C52C71
:100EF8000E94482F0E94F82CAF91BF918F919F912B
:100F08000E944F2D0E94342FAB81AA23A2F4E091B6
:100F18006002F09161026091620270916302A0E048
:100F2800B0E080E090E40E944F2D0E942F2F0E9495
:100F3800FF2C0E94342F0E942A2F2C9608950E947D
:100F48003E2F2897E0917402F09175026091760225
:100F580070917702A0E0B0E080E09FE30E944F2DFF
:100F6800A0917802B091790280917A0290917B02E7
:100F78000E94FF2CA0916802B091690280916A02D8
:100F880090916B020E944F2D0E94342FAF85AA23A7
:100F980022F40E94592C0E94342F0E942A2FA885DF
:100FA800B9858A859B850E94FF2CDF01CB010E94B1
:100FB80056287F936F93FF93EF93E0916802F09127
:100FC800690260916A0270916B02AC85BD858E855D
:100FD8009F850E944F2DDF01CB010E945628AF91BB
:100FE800BF918F919F910E944F2DEC83FD836E835B
:100FF8007F83AC81BD818E819F81E8E5FFEF6FE73C
:101008007FE30E94E22D09F008F408C0E0E0F0E078
:1010180060E87FE3EC83FD836E837F83AC81BD81D1
:101028008E819F810E9415297F936F93FF93EF9381
:10103800A0916002B0916102809162029091630276
:10104800E0E0F0E060E070E40E949D2DAF91BF9178
:101058008F919F910E94FF2CEC83FD836E837F8389
:10106800609608950E943E2FE0916802F09169020F
:1010780060916A0270916B02A2E0BBE38CE893E492
:101088000E944F2D7F936F93FF93EF93E091680237
:10109800F091690260916A0270916B02A3E6B3E570
:1010A8008CE79FE30E944F2D0E942F2F0E944F2D07
:1010B800AF91BF918F919F910E94FF2CDF01CB01CF
:1010C800DCDEE0936C02F0936D0260936E02709325
:1010D8006F02E0916802F091690260916A02709172
:1010E8006B02A6E9B3EC82EB93E40E944F2D7F9349
:1010F8006F93FF93EF93E0916802F091690260911A
:101108006A0270916B02ADE4B0E58CE79FE30E9440
:101118004F2D0E942F2F0E944F2DAF91BF918F917D
:101128009F910E94FF2CDF01CB01A7DEE0937002A4
:10113800F09371026093720270937302E0916802F7
:10114800F091690260916A0270916B02A8EBBEE1AE
:1011580085EF9FE30E944F2D7F936F93FF93EF934B
:10116800A0917002B0917102809172029091730205
:101178000E949327AF91BF918F919F910E944F2D0D
:10118800A0916C02B0916D0280916E0290916F02F5
:101198000E94FF2C7F936F93FF93EF93E091680277
:1011A800F091690260916A0270916B02AAE0B7ED52
:1011B80083EA9CE30E944F2D7F936F93FF93EF93F5
:1011C800E0917002F0917102609172027091730265
:1011D800A0E0B0E080E090E40E944F2DDF01CB0159
:1011E8000E949327AF91BF918F919F910E944F2D9D
:1011F800AF91BF918F919F910E94FF2CDF01CB018E
:101208003CDEAAC40E943E2FA097E0916002F091B4
:1012180061026091620270916302A0E0B0E084E331
:1012280093E40E949D2DE0936402F093650260931D
:10123800660270936702A0916002B091610280918A
:10124800620290916302E0E0F0E064E373E40E94DC
:101258009D2DE0936802F093690260936A0270938F
:101268006B02E0E0F0E060E471E4ECA7FDA76EA794
:101278007FA7E8A9F9A96AA97BA90E948E2C0E94D8
:10128800392FE8ADF9AD6AAD7BAD0E948E2C0E9476
:10129800392FFE01E05CFF4F019011906191708140
:1012A800F0010E948E2C0E94392FA8ADB9AD8AADED
:1012B8009BAD68DDEC8FFD8F6E8F7F8FAC8DBD8D04
:1012C8008E8D9F8DCFDEE88FF98F6A8F7B8FE091AF
:1012D8006802F091690260916A0270916B02A2E162
:1012E800B3E88BEB91E40E944F2D7F936F93FF93AC
:1012F800EF93E0916802F091690260916A0270913F
:101308006B02A5E9BFEB86ED94E30E944F2DAC8DEF
:10131800BD8D8E8D9F8D0E944F2DAF91BF918F9166
:101328009F910E94482F0E94F82CEC8BFD8B6E8BAE
:101338007F8BAC89BD898E899F890E9447287F93BE
:101348006F93FF93EF93A88DB98D8A8D9B8D0E9423
:101358009327AF91BF918F919F910E944F2D0E942B
:10136800392FAC8DBD8D8E8D9F8D0E944728DF0152
:10137800CB010E94B129E88BF98B6A8B7B8BAC89F6
:10138800BD898E899F890E9493277F936F93FF93CE
:10139800EF93A88DB98D8A8D9B8D0E949327AF916D
:1013A800BF918F919F910E944F2DDF01CB010E9429
:1013B8001529EC87FD876E877F87A889B9898A896F
:1013C8009B89E0916C02F0916D0260916E027091C0
:1013D8006F020E94F82CE887F9876A877B87E0917B
:1013E8006002F09161026091620270916302A091C3
:1013F8006C02B0916D0280916E0290916F020E9412
:10140800E22D80F4A0E0B0E080E090E40E944F2D4F
:10141800A885B9858A859B850E94FF2CE887F9876E
:101428006A877B87E0916002F091610260916202B5
:1014380070916302A885B9858A859B850E949D2D38
:10144800DF01CB01E0E0F0E060E070E40E949D2D58
:10145800A0E0B0E080E89FE30E94482F0E94F82CAB
:10146800A0E0B0E084EB94E40E944F2DEC83FD8370
:101478006E837F83E8A5F9A56AA57BA50E94392F0D
:10148800A889B9898A899B895ADD0E94342FA0E0EE
:10149800B0E080E491E40E944F2DDF01CB01E091A0
:1014A8006002F091610260916202709163020E9491
:1014B8009D2DA0E0B0E080E491E40E94482F0E94B6
:1014C800F82CA8A1B9A18AA19BA10E94FF2C7F9307
:1014D8006F93FF93EF93ACA1BDA18EA19FA1E0E014
:1014E800F0E060E771E40E949D2DAF91BF918F916C
:1014F8009F910E94482F0E94F82C7F936F93FF932F
:10150800EF93AC81BD818E819F81E0E0F0E060E7E0
:1015180072E40E949D2DAF91BF918F919F910E947F
:10152800FF2CE0938002F093810260938202709313
:1015380083020E942A2FA0E0B0E080E491E40E9498
:101548004F2DDF01CB01E0916002F09161026091C3
:101558006202709163020E949D2DA0E0B0E080E4D9
:1015680091E40E94FF2CA8A1B9A18AA19BA10E9485
:10157800FF2C7F936F93FF93EF93ACA1BDA18EA136
:101588009FA1E0E0F0E060E771E40E949D2DAF913B
:10159800BF918F919F910E94482F0E94F82C7F93B2
:1015A8006F93FF93EF93AC81BD818E819F81E0E0C3
:1015B800F0E060E772E40E949D2DAF91BF918F919A
:1015C8009F910E94FF2CE0937C02F0937D02609330
:1015D8007E0270937F02A0918002B0918102809177
:1015E800820290918302E0E0F0E060EC71E40E94F6
:1015F800E22D09F008F416C0E0918002F091810212
:101608006091820270918302A0E0B0E080EC91E4E6
:101618000E94F82CE0938002F0938102609382028A
:1016280070938302A0917C02B0917D0280917E022A
:1016380090917F02E0E0F0E060EC71E40E94E22D1E
:1016480009F008F416C0E0917C02F0917D026091E7
:101658007E0270917F02A0E0B0E080EC91E40E94ED
:10166800F82CE0937C02F0937D0260937E027093E5
:101678007F02A0918002B0918102809182029091B4
:101688008302E0E0F0E060E772E40E944F2DE0930F
:101698008802F093890260938A0270938B02A0916A
:1016A8007C02B0917D0280917E0290917F02E0E001
:1016B800F0E060E772E40E944F2DE0938C02F09313
:1016C8008D0260938E0270938F02A0918802B09170
:1016D800890280918A0290918B020E94F82CE093F3
:1016E8008402F09385026093860270938702EC96D9
:1016F8000895E091AC02F091AD023097D1F0E0E0AE
:10170800E093C002E093C102E093AC02E093AD0223
:10171800E89441F842F8E093AE02E093AF02E09318
:10172800B002E093B1020E944D2BAAE0B0E00E9403
:101738004F2C52FE15C0E89452F80E944D2BAEE78C
:10174800B2E00E94892BE0E0EA93A1E00E94392BE5
:10175800AAE8B2E00E94892BA0EDB7E00E944F2CC6
:101768000895AA93A981ECE3EA9FF001DF01E881DB
:10177800F0E0EA0FFB1F9BC10E943E2F2597A8852A
:10178800AA2372F4ADE20E94622BED81FE816F8183
:1017980078850E94422EED83FE836F83788703C08D
:1017A800A0E20E94622BAD81BE818F819885EAE01C
:1017B800F0E060E070E00E94DE2EE05DE883AD813D
:1017C800BE818F819885EAE0F0E060E070E00E94D9
:1017D800C82EED83FE836F837887AD81BE818F81AC
:1017E8009885EAE0F0E060E070E00E94DE2EE05DBF
:1017F800E983AD81BE818F819885EAE0F0E060E001
:1018080070E00E94C82EED83FE836F837887AD81D8
:10181800BE818F819885EAE0F0E060E070E00E9488
:10182800DE2EE05DEA83AD81BE818F819885EAE096
:10183800F0E060E070E00E94C82EED83FE836F83C5
:101848007887AD81BE818F819885EAE0F0E060E01D
:1018580070E00E94DE2EE05DEB83AD81BE818F815A
:101868009885EAE0F0E060E070E00E94C82EED8321
:10187800FE836F837887ED81E05DEC83AC810E9405
:10188800622BAB810E94622BAA810E94622BA981E4
:101898000E94622BA8810E94622B29960895AA9320
:1018A8002297AA81BB27EAE0F0E00E94D02EE05DF3
:1018B800E883AA81B0E0EAE0F0E00E949E2EEA8385
:1018C800E05DE983A9810E94622BA8810E94622BB6
:1018D800D7C0BA93AA932397AB81BC81EAE0F0E022
:1018E8000E94CD2EE05DE883AB81BC81EAE0F0E0A8
:1018F8000E948B2EEB83FC83AB81BC81EAE0F0E095
:101908000E94CD2EE05DE983AB81BC81EAE0F0E086
:101918000E948B2EEB83FC83EB81E05DEA83AA8136
:101928000E94622BA9810E94622BA8810E94622BCF
:101938002596089542FE2EC0A2ECB2E0ED91FD91ED
:101948003196FE93EE93A091C202B091C302A83CD7
:10195800E0E0BE0728F0E0E0E093C202E093C302B3
:10196800A091C202B091C302A639E0E0BE0750F0D0
:10197800CA92A091C8020E94392BA5E9B2E00E9440
:10198800892B08C0CA92A091C8020E94392BA09145
:10199800C90285DF0895A72D82DFAAE30E94622B82
:1019A800A62D7DDFAAE30E94622BA92D4DC0BA9314
:1019B800AA931A930A93AB81AA2312F4ADE201C049
:1019C800ABE20E94622BAA81BB810E941A2A8F0176
:1019D800D801E4E6F0E00E948B2EDF017ADFAEE268
:1019E8000E94622BD801E4E6F0E00E94CD2EAE2FD3
:1019F80056DFB0C0BA93AA931A930A93A0E20E9442
:101A0800622BAA81BB810E941A2A8F01D801E4E6C1
:101A1800F0E00E948B2EAE2F42DFD801E4E6F0E022
:101A28000E94CD2EAE2F3BDF95C0AB2D38DFAEE246
:101A38000E94622BAA2D33DFAEE20E94622BA8E936
:101A4800B2E00E94892BAD2D2ADF0895BA93AA939C
:101A58001A93A981BA81ECE3F0E00E949E2E1E2F12
:101A6800A12F1DDFABE9B2E00E94892BA981BA81C1
:101A7800ECE3F0E00E94D02E1E2FA12F10DF18817A
:101A880023960895BA93AA93A881B981E4E6F0E071
:101A98000E949E2EAE2F03DFAEE20E94622BA88129
:101AA800B981E4E6F0E00E94D02EAE2FF8DE22964F
:101AB8000895BA93AA931A930A93AB81AA2342F47E
:101AC800EA81FB810E943E2EEA83FB83ADE201C0DE
:101AD800A0E20E94622B12C0BA93AA931A930A93A7
:101AE800AB81AA2342F4EA81FB810E943E2EEA835D
:101AF800FB83ADE201C0A0E20E94622BAA81BB81F8
:101B0800EAE0F0E00E949E2E0E2FA02FBB27E4E60D
:101B1800F0E00E94D02E1E2FA02FB0E0E4E6F0E007
:101B28000E949E2E0E2FA02FA05D0E94622BA12F37
:101B3800B6DEAEE20E94622BAA81BB81EAE0F0E049
:101B48000E94D02E1E2FA12FA05D0E94622BA0E024
:101B58000E94622B1981088124960895C89969C04A
:101B6800E0E0E093B202E093B302E093A802E093CE
:101B7800A902E093AA02E093AB02A0ECB2E0ED91D7
:101B8800FD913196FE93EE93A091C002B091C102EF
:101B9800A83EE3E0BE0708F44BC0E091AC02F09128
:101BA800AD02309759F5E0E0E093C002E093C1023E
:101BB800E1E0F0E0E093AC02F093AD02689441F804
:101BC8000E944D2BADE9B2E00E94892BE0E0EA9338
:101BD800A1E00E94392BDFDE7092C902CC24E1E03B
:101BE800E093C802689442F8E0E0E093AE02E09324
:101BF800AF02E093B002E093B1021AC0E0E0E093D4
:101C0800C002E093C102E093AC02E093AD02E89415
:101C180041F842F8E093AE02E093AF02E093B002DD
:101C2800E093B1020E944D2BAAE0B0E00E944F2C35
:101C380005C0E0E0E093C002E093C102CB993CC04C
:101C4800A6ECB2E0ED91FD913196FE93EE93A09152
:101C5800C602B091C702A13DE7E0BE0760F1E0E02F
:101C6800E093C602E093C70252FC10C0689452F891
:101C78000E944D2BAEE7B2E00E94892BE0E0EA9388
:101C8800A1E00E94392BAAEAB2E00FC0E89452F80A
:101C98000E944D2BAEE7B2E00E94892BE0E0EA9368
:101CA800A1E00E94392BAAE8B2E00E94892BA0ED9E
:101CB800B7E00E944F2C05C0E0E0E093C602E09335
:101CC800C702089531FE02C041FC01C03EC2E8943B
:101CD80031F8E0E0E093B202E093B302E093A802A7
:101CE800E093A902E093AA02E093AB02A091AC02B0
:101CF800B091AD02119709F028C2E091B002F091BD
:101D0800B102309731F47394E8E1E71508F47724C9
:101D18001CC2E130A0E0FA0731F46394EBE3E61566
:101D280008F4662412C2E230A0E0FA0731F4939472
:101D3800EBE3E91508F4992408C2E330A0E0FA07B8
:101D480039F4B394EFE1EB1510F4E1E0BE2EFDC1D8
:101D5800E430A0E0FA0739F4A394ECE0EA1510F4B3
:101D6800E1E0AE2EF2C1E530A0E0FA0739F4D394F1
:101D7800E3E6ED1510F4EDE0DE2EE7C1E630A0E075
:101D8800FA0741F5E091CA02F091CB02EC59FF4FF6
:101D9800E093CA02F093CB02A091CA02B091CB02A1
:101DA800A932E3E2BE0734F0E8E2F3E2E093CA02C4
:101DB800F093CB02A091CA02B091CB020E941A2ADA
:101DC800DF01E4E6F0E00E948B2EE093C902E09385
:101DD800E202BBC1E730A0E0FA0739F5E091CA0298
:101DE800F091CB023196E093CA02F093CB02A09116
:101DF800CA02B091CB02A932E3E2BE0734F0E8E2AE
:101E0800F3E2E093CA02F093CB02A091CA02B09128
:101E1800CB020E941A2ADF01E4E6F0E00E94CD2EF0
:101E2800E093C902E093E20290C1E830A0E0FA072B
:101E380069F5E091CC02F091CD02EC59FF4FE093A7
:101E4800CC02F093CD02A091CC02B091CD02A13585
:101E5800E6E4BE0734F0E0E5F6E4E093CC02F09364
:101E6800CD02A091CC02B091CD020E941A2ADF01C6
:101E7800E4E6F0E00E948B2EDF01E4E6F0E00E9449
:101E8800CD2EE093C902E093E3025FC1E930A0E000
:101E9800FA0739F5E091CC02F091CD023196E09342
:101EA800CC02F093CD02A091CC02B091CD02A13525
:101EB800E6E4BE0734F0E0E5F6E4E093CC02F09304
:101EC800CD02A091CC02B091CD020E941A2ADF0166
:101ED800E4E6F0E00E94CD2EE093C902E093E3022D
:101EE80034C1EA30A0E0FA07C1F4E091D202F091DF
:101EF800D3023596E093D202F093D302A091D20296
:101F0800B091D302AB35E0E0BE0734F0E5E0F0E095
:101F1800E093D202F093D30218C1EB30A0E0FA07A5
:101F2800C9F4E091D802F091D902EC59FF4FE0933F
:101F3800D802F093D902A091D802B091D902A13B5E
:101F4800E4E0BE0734F0E0EBF4E0E093D802F0936D
:101F5800D902FBC0EC30A0E0FA07C1F4E091D80246
:101F6800F091D9027996E093D802F093D902A09122
:101F7800D802B091D902A13BE4E0BE0734F0E0EB0F
:101F8800F4E0E093D802F093D902DFC0ED30A0E08E
:101F9800FA07C9F4E0910503F0910603EC59FF4FE5
:101FA800E0930503F0930603A0910503B09106039F
:101FB800A031E7E2BE0734F0ECEAF6E2E09305036D
:101FC800F0930603C2C0EE30A0E0FA07C1F4E09136
:101FD8000503F09106033A96E0930503F093060390
:101FE800A0910503B0910603A031E7E2BE0734F0E3
:101FF800ECEAF6E2E0930503F0930603A6C0EF309F
:10200800A0E0FA07C9F4E0910303F0910403EC5946
:10201800FF4FE0930303F0930403A0910303B091EF
:102028000403A031E7E2BE0734F0ECEAF6E2E093FD
:102038000303F093040389C0E031A0E0FA07C1F478
:10204800E0910303F09104033A96E0930303F093BD
:102058000403A0910303B0910403A031E7E2BE0793
:1020680034F0ECEAF6E2E0930303F09304036DC066
:10207800E131A0E0FA07C9F4E0910703F091080301
:10208800EC59FF4FE0930703F0930803A09107036F
:10209800B0910803A13FE0E0BE0734F0E0EFF0E0C4
:1020A800E0930703F093080350C0E231A0E0FA0779
:1020B800C1F4E0910703F09108033196E093070318
:1020C800F0930803A0910703B0910803A13FE0E053
:1020D800BE0734F0E0EFF0E0E0930703F093080365
:1020E80034C0E331A0E0FA07B9F4E0910903F091B4
:1020F8000A03EC59FF4FE0930903F0930A03A091F8
:102108000903B0910A03169734F0E5E0F0E0E09394
:102118000903F0930A0319C0E431A0E0FA07A9F40F
:10212800E0910903F0910A033196E0930903F093D3
:102138000A03A0910903B0910A03169734F0E5E069
:10214800F0E0E0930903F0930A03089532FE02C019
:1021580041FC01C02FC2E0E0E093B202E093B30279
:10216800E093A802E093A902E093AA02E093AB02ED
:10217800E89432F8A091AC02B091AD02119709F041
:1021880019C2E091B002F091B102309731F47A941B
:10219800E7E1E71508F47E2E0DC2E130A0E0FA076A
:1021A80031F46A94EBE3E61508F46E2E03C2E230CC
:1021B800A0E0FA0731F49A94EBE3E91508F49E2EAF
:1021C800F9C1E330A0E0FA0739F4BA94E1E0BE16A9
:1021D80010F4EFE1BE2EEEC1E430A0E0FA0739F4C6
:1021E800AA94E1E0AE1610F4ECE0AE2EE3C1E530BF
:1021F800A0E0FA0731F4DA94E3E6ED1508F4DE2EF0
:10220800D9C1E630A0E0FA0741F5E091CA02F091A1
:10221800CB02E456F040E093CA02F093CB02A091BF
:10222800CA02B091CB02A83DECEDBE0734F4E8ED4C
:10223800FCEDE093CA02F093CB02A091CA02B091E0
:10224800CB020E941A2ADF01E4E6F0E00E948B2EFE
:10225800E093C902E093E202ADC1E730A0E0FA07DB
:1022680039F5E091CA02F091CB023197E093CA02A6
:10227800F093CB02A091CA02B091CB02A83DECED3D
:10228800BE0734F4E8EDFCEDE093CA02F093CB020C
:10229800A091CA02B091CB020E941A2ADF01E4E69B
:1022A800F0E00E94CD2EE093C902E093E20282C1E1
:1022B800E830A0E0FA0769F5E091CC02F091CD0290
:1022C800E456F040E093CC02F093CD02A091CC020A
:1022D800B091CD02A03BE9EBBE0734F4E0EBF9EB9B
:1022E800E093CC02F093CD02A091CC02B091CD0244
:1022F8000E941A2ADF01E4E6F0E00E948B2EDF013B
:10230800E4E6F0E00E94CD2EE093C902E093E302F8
:1023180051C1E930A0E0FA0739F5E091CC02F0911B
:10232800CD023197E093CC02F093CD02A091CC027C
:10233800B091CD02A03BE9EBBE0734F4E0EBF9EB3A
:10234800E093CC02F093CD02A091CC02B091CD02E3
:102358000E941A2ADF01E4E6F0E00E94CD2EE09305
:10236800C902E093E30226C1EA30A0E0FA07B1F41B
:10237800E091D202F091D3023597E093D202F09324
:10238800D302A091D202B091D302159734F4EAE5B2
:10239800F0E0E093D202F093D3020CC1EB30A0E05E
:1023A800FA07C9F4E091D802F091D902E456F04056
:1023B800E093D802F093D902A091D802B091D90243
:1023C800A035EBEFBE0734F4E0E5FBEFE093D8026D
:1023D800F093D902EFC0EC30A0E0FA07C1F4E09125
:1023E800D802F091D9027997E093D802F093D902F4
:1023F800A091D802B091D902A035EBEFBE0734F412
:10240800E0E5FBEFE093D802F093D902D3C0ED30BA
:10241800A0E0FA07B9F4E0910503F0910603E45649
:10242800F040E0930503F0930603A0910503B091F3
:102438000603119734F4EAE0F0E0E0930503F09323
:102448000603B8C0EE30A0E0FA07B1F4E091050346
:10245800F09106033A97E0930503F0930603A091E1
:102468000503B0910603119734F4EAE0F0E0E09335
:102478000503F09306039EC0EF30A0E0FA07B9F415
:10248800E0910303F0910403E456F040E093030362
:10249800F0930403A0910303B0910403119734F45B
:1024A800EAE0F0E0E0930303F093040383C0E03133
:1024B800A0E0FA07B1F4E0910303F09104033A971E
:1024C800E0930303F0930403A0910303B091040382
:1024D800119734F4EAE0F0E0E0930303F093040387
:1024E80069C0E131A0E0FA07B9F4E0910703F0917F
:1024F8000803E456F040E0930703F0930803A09123
:102508000703B0910803119734F4E1E0F0E0E09399
:102518000703F09308034EC0E231A0E0FA07B1F4D4
:10252800E0910703F09108033197E0930703F093D4
:102538000803A0910703B0910803119734F4E1E070
:10254800F0E0E0930703F093080334C0E331A0E020
:10255800FA07B9F4E0910903F0910A03E456F04050
:10256800E0930903F0930A03A0910903B0910A03C9
:10257800119734F4E1E0F0E0E0930903F0930A03E3
:1025880019C0E431A0E0FA07A9F4E0910903F09139
:102598000A033197E0930903F0930A03A091090312
:1025A800B0910A03119734F4E1E0F0E0E0930903F5
:1025B800F0930A03089533FE02C041FC01C00BC129
:1025C800E0E0E093B202E093B302E093A802E09364
:1025D800A902E093AA02E093AB02E89433F8A09131
:1025E800AC02B091AD02119709F0F5C0A0EBB2E0D2
:1025F800ED91FD913196FE93EE93A091AE02B091CC
:10260800AF02109731F4A091B002B091B1021397C4
:102618000CF405C0E0E0E093B002E093B102A091B1
:10262800AE02B091AF02119769F4A091B002B091D7
:10263800B102139734F0A091B002B091B10216978D
:102648000CF001C006C0E3E0F0E0E093B002F093C4
:10265800B102A091AE02B091AF02129769F4A091B5
:10266800B002B091B102169734F0A091B002B091C7
:10267800B10218970CF001C006C0E6E0F0E0E09364
:10268800B002F093B102A091AE02B091AF021397DD
:1026980069F4A091B002B091B102189734F0A091FA
:1026A800B002B091B1021A970CF001C006C0E8E080
:1026B800F0E0E093B002F093B102A091AE02B091C5
:1026C800AF02149731F4EAE0F0E0E093B002F0933F
:1026D800B102A091AE02B091AF02159769F4A09132
:1026E800B002B091B1021B9734F0A091B002B09142
:1026F800B1021D970CF001C006C0EBE0F0E0E093DA
:10270800B002F093B102A091AE02B091AF02169759
:1027180069F4A091B002B091B1021D9734F0A09174
:10272800B002B091B1021F970CF001C006C0EDE0F5
:10273800F0E0E093B002F093B102A091AE02B09144
:10274800AF02179769F4A091B002B091B1021F9738
:1027580034F0A091B002B091B10251970CF001C0D1
:1027680006C0EFE0F0E0E093B002F093B102A09170
:10277800AE02B091AF02189769F4A091B002B0917F
:10278800B102519734F0A091B002B091B1025397C1
:102798000CF001C006C0E1E1F0E0E093B002F09374
:1027A800B102A091AE02B091AF02199769F4A0915D
:1027B800B002B091B102549734F0A091B002B09138
:1027C800B10255970CF001C006C0E4E1F0E0E093D7
:1027D800B002F093B102089530FE02C041FC01C07E
:1027E80063C3E0E0E093B202E093B302E093A8028F
:1027F800E093A902E093AA02E093AB02E89430F8D0
:10280800A091AC02B091AD02119709F04DC3E091CF
:10281800AE02F091AF02309731F47A926A92A92D04
:102828000E94772A64C0E130A0E0FA0739F48A925E
:10283800BA92AA92AD2D0E94CC2A59C0E230A0E0EB
:10284800FA0739F4E091CA02F091CB02A0E0B0E0B7
:102858004CC0E330A0E0FA0739F4E091CC02F091E3
:10286800CD02A2E0B0E041C0E430A0E0FA0739F4BC
:10287800E091D202F091D302A8E0B0E036C0E53092
:10288800A0E0FA0739F4E091D802F091D902AAE061
:10289800B0E02BC0E630A0E0FA0739F4E091050378
:1028A800F0910603ABE1B0E020C0E730A0E0FA0702
:1028B80039F4E0910303F0910403ADE1B0E015C0F1
:1028C800E830A0E0FA0739F4E0910703F091080333
:1028D800A2E2B0E00AC0E930A0E0FA0741F4E091D2
:1028E8000903F0910A03A4E2B0E00E94712FAEEA56
:1028F800B2E0ED91FD913196FE93EE93A091AE0278
:10290800B091AF021A972CF0E0E0E093AE02E093AA
:10291800AF02E091AE02F091AF02309751F50E94FC
:102928004D2BA7EBB2E00E94892BE7E0F0E0FA9389
:10293800EA93E6E0F0E0FA93EA93A9E0B0E00E94B7
:10294800472AE0E0EA93A1E00E94392B24D870924C
:10295800C902CC24E1E0E093C802689442F8E0E0C0
:10296800E093AE02E093AF02E093B002E093B102CD
:102978009BC2E130A0E0FA0769F50E944D2BA0EC5C
:10298800B2E00E94892BE8E0F0E0FA93EA93EBE0EA
:10299800F0E0FA93EA93EAE0F0E0FA93EA93ADE024
:1029A800B0E00E94962AE0E0EA93A1E00E94392B69
:1029B8003CD8B092C902CC24E1E0E093C802689404
:1029C80042F8E1E0F0E0E093AE02F093AF02E3E01A
:1029D800F0E066C2E230A0E0FA0709F040C00E94C9
:1029E8004D2BA9ECB2E00E94892BA0E0B0E00E9438
:1029F800592FE093CA02F093CB02E0E0EA93A1E0FA
:102A08000E94392BA091CA02B091CB020E94DB0C24
:102A1800A0E00E94622BA091CA02B091CB020E9452
:102A28001A2ADF01E4E6F0E00E948B2EDF01E4E6DB
:102A3800F0E00E94CD2EE093C902E093E202E2E0CA
:102A4800CE2EE1E0E093C802689442F8E2E0F0E0BC
:102A5800E093AE02F093AF02E6E0F0E021C2E3308B
:102A6800A0E0FA0709F040C00E944D2BA6EDB2E0A5
:102A78000E94892BA2E0B0E00E94592FE093CC027B
:102A8800F093CD02E0E0EA93A1E00E94392BA091F7
:102A9800CC02B091CD020E94DB0CA0E00E94622B18
:102AA800A091CC02B091CD020E941A2ADF01E4E67F
:102AB800F0E00E948B2EDF01E4E6F0E00E94CD2ECC
:102AC800E093C902E093E302E2E0CE2EE1E0E09376
:102AD800C802689442F8E3E0F0E0E093AE02F093B5
:102AE800AF02E8E0F0E0DCC1E430A0E0FA0771F5FD
:102AF8000E944D2BA4EEB2E00E94892BE091D202F5
:102B0800F091D302A8E0B0E00E94712FE0E0EA93D0
:102B1800A1E00E94392BA091D2020E94530CA3EF8E
:102B2800B2E00E94892BE091D202E093C902CC2442
:102B3800E1E0E093C802689442F8E4E0F0E0E09352
:102B4800AE02F093AF02EAE0F0E0AAC1E530A0E0FF
:102B5800FA0709F045C00E944D2BACEFB2E00E9485
:102B6800892BAAE0B0E00E94592FE093D802F09395
:102B7800D902E0E0EA93A1E00E94392BA9E0B3E092
:102B88000E94892BA091D802B091D9020E94DB0C37
:102B9800AEE0B3E00E94892BA091D802B091D9028F
:102BA8000E941A2ADF01E4E6F0E00E948B2EDF0182
:102BB800E4E6F0E00E94CD2EE093C902E093E4023F
:102BC800E6E0CE2EE1E0E093C802689442F8E5E042
:102BD800F0E0E093AE02F093AF02EBE0F0E060C10A
:102BE800E630A0E0FA0709F045C00E944D2BA3E1AA
:102BF800B3E00E94892BABE1B0E00E94592FE0932B
:102C08000503F0930603E0E0EA93A1E00E94392B64
:102C1800A4E2B3E00E94892BA0910503B0910603BA
:102C28000E94DB0CA9E2B3E00E94892BA091050366
:102C3800B09106030E941A2ADF01E4E6F0E00E9440
:102C48008B2EDF01E4E6F0E00E94CD2EE093C9026E
:102C5800E093E502E6E0CE2EE1E0E093C802689456
:102C680042F8E6E0F0E0E093AE02F093AF02EDE068
:102C7800F0E016C1E730A0E0FA0709F045C00E946D
:102C88004D2BAFE2B3E00E94892BADE1B0E00E948A
:102C9800592FE0930303F0930403E0E0EA93A1E0E3
:102CA8000E94392BA4E2B3E00E94892BA091030370
:102CB800B09104030E94DB0CA9E2B3E00E94892BC7
:102CC800A0910303B09104030E941A2ADF01E4E6ED
:102CD800F0E00E948B2EDF01E4E6F0E00E94CD2EAA
:102CE800E093C902E093E602E6E0CE2EE1E0E0934D
:102CF800C802689442F8E7E0F0E0E093AE02F0938F
:102D0800AF02EFE0F0E0CCC0E830A0E0FA0709F04D
:102D180045C00E944D2BACE3B3E00E94892BA2E290
:102D2800B0E00E94592FE0930703F0930803E0E016
:102D3800EA93A1E00E94392BA4E2B3E00E94892B18
:102D4800A0910703B09108030E94FE0CA6E9B2E027
:102D58000E94892BA0910703B09108030E941A2AA8
:102D6800DF01E4E6F0E00E948B2EDF01E4E6F0E00C
:102D78000E94CD2EE093C902E093E702E5E0CE2E53
:102D8800E1E0E093C802689442F8E8E0F0E0E093FC
:102D9800AE02F093AF02E1E1F0E082C0E930A0E0DA
:102DA800FA0709F081C00E944D2BA6E4B3E00E9407
:102DB800892BA4E2B0E00E94592FE0930903F09315
:102DC8000A03E0E0EA93A1E00E94392BA5E2B3E010
:102DD8000E94892BE0910903F0910A03E130A0E0F9
:102DE800FA0729F4A3E5B3E00E94892B32C0E23048
:102DF800A0E0FA0729F4AAE5B3E00E94892B29C0CC
:102E0800E330A0E0FA0729F4A1E6B3E00E94892B99
:102E180020C0E430A0E0FA0729F4A8E6B3E00E9455
:102E2800892B17C0E530A0E0FA0729F4AFE6B3E034
:102E38000E94892B0EC0A3E5B3E00E94892BE0E035
:102E4800F0E0E0930903F0930A03A4E2B0E00E94E3
:102E5800712FA6E7B3E00E94892BA0910903B091D6
:102E68000A030E941A2ADF01E4E6F0E00E948B2E92
:102E7800DF01E4E6F0E00E94CD2EE093C902E09382
:102E8800E802E7E0CE2EE1E0E093C802E89442F8D9
:102E9800E9E0F0E0E093AE02F093AF02E3E1F0E0A6
:102EA800E093B002F093B1020895C89902C020FCE3
:102EB80001C002C0689430F8C99902C021FC01C061
:102EC80002C0689431F8CA9902C022FC01C002C04D
:102ED800689432F8CB9902C023FC01C002C0689400
:102EE80033F8CE9902C024FC01C002C0689434F8BB
:102EF800E894CE99689424F8E894C899689420F8DE
:102F0800E894C999689421F8E894CA99689422F8D1
:102F1800E894CB99689423F8CA9908C0A091AC02A8
:102F2800B091AD02109711F452FE01C026C0A0EA7C
:102F3800B2E00E94172FEF5FFF4F6F4F7F4F0E9445
:102F4800212FA091A002B091A1028091A20290919C
:102F5800A302A03AEFE0BE07E0E08E07E0E09E079C
:102F68005CF0E0E0E093A002E093A102E093A2020B
:102F7800E093A302689434F809C0E0E0E093A0026B
:102F8800E093A102E093A202E093A302C99902C0D0
:102F980052FE01C039C0A4EAB2E00E94172FEF5FC9
:102FA800FF4F6F4F7F4F0E94212FA091A402B09135
:102FB800A5028091A6029091A702A03DE7E0BE0776
:102FC800E0E08E07E0E09E07F4F0E0E0E093A40282
:102FD800E093A502E093A602E093A702689450F854
:102FE8000E944D2BACE7B3E00E94892BE0E0EA9306
:102FF800A1E00E94392BADE8B3E00E94892BA0ED37
:10300800B7E00E944F2C09C0E0E0E093A402E093EF
:10301800A502E093A602E093A7020895A6E9B0E00E
:103028000E944F2C0E94032CA2ED0E94372CA9E18C
:103038000E94372CA7E00E94372C0E94122C0E9475
:10304800032CA2ED0E94372CABE60E94372CA1E09E
:103058000E94372C0E94122C0E94032CA2ED0E9481
:10306800372CAAE10E94372CA6E00E94372C0E9438
:10307800122C0E94032CA2ED0E94372CABE10E9477
:10308800372CA8E10E94372C0E94122C0E94032C96
:10309800A2ED0E94372CA8E30E94372CA1E00E94E1
:1030A800372C0E94122C08951A930A930E94032C1D
:1030B800A2ED0E94372CABE30E94372C0E94032C10
:1030C800A3ED0E94372CA1E00E941C2CFE2FE0E00B
:1030D800FF93EF93A1E00E941C2CF0E0AF91BF9109
:1030E800EA2BFB2BE093E902F093EA02A1E00E94AD
:1030F8001C2CFE2FE0E0FF93EF93A1E00E941C2C14
:10310800F0E0AF91BF91EA2BFB2BE093EB02F09339
:10311800EC02A1E00E941C2CFE2FE0E0FF93EF934D
:10312800A0E00E941C2CF0E0AF91BF91EA2BFB2B92
:10313800E093ED02F093EE020E94122CA4E6B0E0B8
:103148000E944F2C0E94032CA2ED0E94372CA3E46E
:103158000E94372C0E94032CA3ED0E94372CA1E07B
:103168000E941C2CFE2FE0E0FF93EF93A1E00E9449
:103178001C2CF0E0AF91BF91EA2BFB2BDF01E3E8B9
:10318800F0E00E949E2EE093F502F093F602A1E093
:103198000E941C2CFE2FE0E0FF93EF93A1E00E9419
:1031A8001C2CF0E0DF01E3E8F0E00E949E2EAF91D6
:1031B800BF91EA2BFB2BE093F702F093F802A1E012
:1031C8000E941C2CFE2FE0E0FF93EF93A0E00E94EA
:1031D8001C2CF0E0DF01E3E8F0E00E949E2EAF91A6
:1031E800BF91EA2BFB2BE093F902F093FA020E94BD
:1031F800122CE091E902F091EA020E944F2E7F938F
:103208006F93FF93EF93A091EB02B091EC020E94B1
:10321800542EE091EB02F091EC020E944F2E0E9496
:10322800862E7F936F93FF93EF93A091ED02B09159
:10323800EE020E94542EE091ED02F091EE020E94FF
:103248004F2E0E94862EAF91BF918F919F910E9421
:10325800392E0E94C52CDF01CB010E94022EAF91AE
:10326800BF918F919F910E94452F0E949D2DDF0154
:10327800CB010E949C29A0E0B0E081EE94EC0E9472
:103288004F2DDF01CB01E8EDFFE069E470E40E9417
:103298009D2DA1EFB2E00E948E2CED93FC93E0915E
:1032A800EB02F091EC020E944F2E7F936F93FF93F5
:1032B800EF93A091E902B091EA020E94542EE091A6
:1032C800E902F091EA020E944F2E0E94862E7F9317
:1032D8006F93FF93EF93A091ED02B091EE020E94DD
:1032E800542EE091ED02F091EE020E944F2E0E94C2
:1032F800862EAF91BF918F919F910E94392E0E9487
:10330800C52CDF01CB010E94022EAF91BF918F9196
:103318009F910E94452F0E949D2DDF01CB010E94A5
:103328009C29A0E0B0E081EE94E40E944F2DDF01DB
:10333800CB01E8EDFFE069E470E40E949D2D0E9456
:103348008E2C8F010093EF021093F002E091EF02B0
:10335800F091F0021BC01A930A9343FE17C0E89439
:1033680043F8A2DEE093FB02F093FC02E093F30241
:10337800F093F402689444F80091DA021091DB02A9
:10338800E01BF10BE093F302F093F4020991199119
:103398000895A091AC02B091AD02109711F452FEBD
:1033A80001C0FBC00E944D2BA4EBB2E0ED91FD9152
:1033B8003196FE93EE93A091B402B091B502A23477
:1033C800E0E0BE072CF0E0E0E093B402E093B50241
:1033D800A091B502AA2332F0A091B402B091B5022F
:1033E8005A970CF01AC0E0E0EA93A0E00E94392B4B
:1033F800A6E9B3E00E94892B0E94CF0CE0E0EA9393
:10340800A1E00E94392BADE9B3E00E94892BA0917D
:10341800F302B091F4020E945D0DA091B402B09144
:10342800B5025A9734F0A091B402B091B5029997B9
:103438000CF02CC0E0E0EA93A0E00E94392BA5EA4A
:10344800B3E00E94892BE0918802F0918902609193
:103458008A0270918B020E948E2CDF010E942A0D35
:10346800E0E0EA93A1E00E94392BAFEAB3E00E94C2
:10347800892BE0918C02F0918D0260918E027091FF
:103488008F020E948E2CDF010E942A0DA091B402A7
:10349800B091B502999734F0A091B402B091B502F9
:1034A800D8970CF01DC0E0E0EA93A0E00E94392B09
:1034B800A8EBB3E00E94892BE0E0EA93A1E00E9428
:1034C800392BA091D402B091D5020E942A0DAFE207
:1034D8000E94622BA0919802B09199020E945D0D02
:1034E800A091B402B091B502D89744F0A091B4026B
:1034F800B091B502A234E0E0BE070CF020C0E0E0D5
:10350800EA93A0E00E94392BA9ECB3E00E94892B32
:103518000E94190DE0E0EA93A1E00E94392BA091E6
:10352800CE02B091CF020E94700DA0EDB3E00E94D0
:10353800892BA091D002B091D1020E94700DE0E0D9
:10354800EA93A2E00E94392BE0E0EA93A2E00E940D
:10355800392BA0919C02B0919D020E945D0DA4EDB3
:10356800B3E00E94892BA0910F03B09110030E9431
:103578005D0DE0E0EA93A3E00E94392BA091980248
:10358800B09199020E945D0DA8EDB3E00E94892BCD
:10359800EAB5FBB5DF010E94460DA091AC02B091DF
:1035A800AD02119711F452FE01C049C2E0E0EA935E
:1035B800A1E00E94392BE091AE02F091AF02309762
:1035C80019F40E94CF0CB4C0E130A0E0FA0719F456
:1035D8000E94190DADC0E230A0E0FA0751F4A091A5
:1035E800CA02B091CB020E94DB0CA0E00E94622BC1
:1035F8009FC0E330A0E0FA0751F4A091CC02B0914B
:10360800CD020E94DB0CA0E00E94622B91C0E43046
:10361800A0E0FA0749F4A091D2020E94530CABED46
:10362800B3E00E94892B84C0E530A0E0FA0759F482
:10363800A9E0B3E00E94892BA091D802B091D902E9
:103648000E94DB0C75C0E630A0E0FA0759F4A4E24A
:10365800B3E00E94892BA0910503B09106030E9454
:10366800DB0C66C0E730A0E0FA0759F4A4E2B3E047
:103678000E94892BA0910303B09104030E94DB0CE4
:1036880057C0E830A0E0FA0759F4A4E2B3E00E947A
:10369800892BA0910703B09108030E94FE0C48C033
:1036A800E930A0E0FA0709F043C0A5E2B3E00E94C0
:1036B800892BE0910903F0910A03E130A0E0FA07B1
:1036C80029F4A3E5B3E00E94892B32C0E230A0E0E0
:1036D800FA0729F4AAE5B3E00E94892B29C0E33050
:1036E800A0E0FA0729F4A1E6B3E00E94892B20C0E4
:1036F800E430A0E0FA0729F4A8E6B3E00E94892B99
:1037080017C0E530A0E0FA0729F4AFE6B3E00E945D
:10371800892B0EC0A3E5B3E00E94892BE0E0F0E01E
:10372800E0930903F0930A03A4E2B0E00E94712F2A
:10373800E091B002F091B102309721F47092C90281
:10374800CC247AC1E130A0E0FA0721F46092C902E2
:10375800E3E071C1E230A0E0FA0721F49092C902D7
:10376800E6E069C1E330A0E0FA0721F4B092C902AB
:10377800CC2462C1E430A0E0FA0721F4A092C90287
:10378800E3E059C1E530A0E0FA0721F4D092C9027C
:10379800E8E051C1E630A0E0FA07B1F4A091CA020E
:1037A800B091CB020E941A2ADF01E4E6F0E00E9401
:1037B8008B2EDF01E4E6F0E00E94CD2EE093C902F3
:1037C800E093E202E2E037C1E730A0E0FA0789F4CB
:1037D800A091CA02B091CB020E941A2ADF01E4E646
:1037E800F0E00E94CD2EE093C902E093E202E5E00A
:1037F80022C1E830A0E0FA07B1F4A091CC02B09160
:10380800CD020E941A2ADF01E4E6F0E00E948B2E26
:10381800DF01E4E6F0E00E94CD2EE093C902E093D8
:10382800E302E2E008C1E930A0E0FA0789F4A091D8
:10383800CC02B091CD020E941A2ADF01E4E6F0E042
:103848000E94CD2EE093C902E093E302E5E0F3C0C5
:10385800EA30A0E0FA0731F4E091D202E093C9021D
:10386800CC24EAC0EB30A0E0FA07B1F4A091D8026A
:10387800B091D9020E941A2ADF01E4E6F0E00E9422
:103888008B2EDF01E4E6F0E00E94CD2EE093C90222
:10389800E093E402E6E0CFC0EC30A0E0FA0789F458
:1038A800A091D802B091D9020E941A2ADF01E4E659
:1038B800F0E00E94CD2EE093C902E093E402E9E033
:1038C800BAC0ED30A0E0FA07B1F4A0910503B091B9
:1038D80006030E941A2ADF01E4E6F0E00E948B2E1C
:1038E800DF01E4E6F0E00E94CD2EE093C902E09308
:1038F800E502E6E0A0C0EE30A0E0FA0789F4A09166
:103908000503B09106030E941A2ADF01E4E6F0E0FD
:103918000E94CD2EE093C902E093E502E9E08BC056
:10392800EF30A0E0FA07B1F4A0910303B0910403CB
:103938000E941A2ADF01E4E6F0E00E948B2EDF01E4
:10394800E4E6F0E00E94CD2EE093C902E093E6029F
:10395800E6E071C0E031A0E0FA0789F4A091030322
:10396800B09104030E941A2ADF01E4E6F0E00E9405
:10397800CD2EE093C902E093E602E9E05CC0E131B4
:10398800A0E0FA07B1F4A0910703B09108030E94E0
:103998001A2ADF01E4E6F0E00E948B2EDF01E4E65C
:1039A800F0E00E94CD2EE093C902E093E702E5E043
:1039B80042C0E231A0E0FA0781F4A0910703B09178
:1039C80008030E941A2ADF01E4E6F0E00E94CD2EE7
:1039D800E093C902E093E7022DC0E331A0E0FA07C3
:1039E800B1F4A0910903B0910A030E941A2ADF01D9
:1039F800E4E6F0E00E948B2EDF01E4E6F0E00E94AE
:103A0800CD2EE093C902E093E802E5E014C0E4316A
:103A1800A0E0FA07A1F4A0910903B0910A030E945B
:103A28001A2ADF01E4E6F0E00E94CD2EE093C902F5
:103A3800E093E802E7E0CE2EE1E0E093C80252FE10
:103A48001BC0E0E0EA93A0E00E94392BA6EEB3E0A9
:103A58000E94892BE0E0EA93A1E00E94392BADE9AE
:103A6800B3E00E94892BA091F302B091F4020E9466
:103A78005D0DA0E00E94622B089544FE02C0E89408
:103A880044F8089524971A930A9301E010E07A9273
:103A9800A62D0E94B50BE093D602F093D702E091D1
:103AA8008802F091890260918A0270918B02A0913C
:103AB800D602B091D7020E94542E0E94452F0E9430
:103AC800E22D09F008F4A9C101E010E00739E0E0AF
:103AD8001E070CF043C0F801A091D202B091D302A6
:103AE8000E94812EA0918802B091890280918A0259
:103AF80090918B020E944F2E0E94C52C0E94FF2C91
:103B0800A091D602B091D7020E94542E0E94452F50
:103B18000E94E22D11F008F01EC0A091D202B091CF
:103B2800D3020E94542EF8010E944F2E0E94862E26
:103B3800A0918802B091890280918A0290918B02AB
:103B48000E94C52C0E94FF2CA4EDB2E00E948E2C8E
:103B5800ED93FC9303C00F5F1F4FB8CFE0918C0229
:103B6800F0918D0260918E0270918F02A091D40223
:103B7800B091D5020E94542E0E94452F0E94E22D3A
:103B880009F008F40EC0E0918C02F0918D0260916A
:103B98008E0270918F02A4EDB2E00E948E2CED93FC
:103BA800FC93E0918802F091890260918A027091F9
:103BB8008B02A091D402B091D5020E94542E0E948B
:103BC800452F0E94E22D70F4E0918802F09189025D
:103BD80060918A0270918B02A4EDB2E00E948E2C53
:103BE800ED93FC93E0918802F091890260918A023A
:103BF80070918B02A091D402B091D5020E94542EEC
:103C08000E94452F0E94482F0E94F82CDE01129630
:103C18000E948E2C0E941C2FEA81FB816C817D8181
:103C2800A8E0B7E080E090E00E94862EDF01CB019B
:103C3800E0918402F091850260918602709187027A
:103C48000E948E2C0E94C82EE458F34060407040B9
:103C5800E0939C02F0939D0260939E0270939F02F2
:103C6800E0D0E0910B03F0910C030E944F2EE093FB
:103C78009802F093990260939A0270939B02E091E4
:103C8800D002F091D102A0919802B091990280914E
:103C98009A0290919B020E944F2E0E94942F74F4D6
:103CA800E091D002F091D1020E944F2EE093980249
:103CB800F093990260939A0270939B02E091CE026E
:103CC800F091CF02A0919802B091990280919A0246
:103CD80090919B020E944F2E0E94992F74F4E091BC
:103CE800CE02F091CF020E944F2EE0939802F093FB
:103CF800990260939A0270939B02A0919802B091E6
:103D0800990280919A0290919B02A935E2E0BE0740
:103D1800E0E08E07E0E09E0764F0E8E5F2E060E0AE
:103D280070E0E0939802F093990260939A0270937E
:103D38009B02A0919802B091990280919A02909169
:103D48009B02A83AEDEFBE07EFEF8E07EFEF9E0755
:103D580064F4E8EAFDEF6FEF7FEFE0939802F093E9
:103D6800990260939A0270939B02E0918802F09105
:103D7800890260918A0270918B02A091D602B0915B
:103D8800D7020E94542E0E94452F0E94E22DB0F0C7
:103D9800E0918C02F0918D0260918E0270918F02F9
:103DA800A091D602B091D7020E94542E0E94452FAE
:103DB8000E94E22D11F008F001C01DC0E0918C02B4
:103DC800F0918D0260918E0270918F02A0E0B0E0B8
:103DD80080E291E40E94FF2CA4EDB2E00E948E2CB8
:103DE800ED93FC93E0E0E0939802E0939902E0936E
:103DF8009A02E0939B02E091D402F091D502A0913F
:103E0800D602B091D702EA17FB0721F425FC02C0BD
:103E180026FE01C002C0689425F8198108812696FB
:103E280008952C97E0919C02F0919D0260919E026A
:103E380070919F02EC57FC4F6F4F7F4FDF01CB0112
:103E4800E0916002F09161026091620270916302F8
:103E58000E94452F0E944F2DDF01CB01E0E0F0E0EA
:103E680061EE74E40E949D2D0E94342F0E942F2F32
:103E78000E949327A0910303B09104030E94542E3B
:103E88000E94452F0E944F2DDF01CB01E0910503D1
:103E9800F09106030E944F2E0E94C52C0E949D2D72
:103EA800E887F9876A877B87A885B9858A859B858E
:103EB800E0E0F0E068EC72E40E944F2DADE0B3E082
:103EC8000E948E2CED93FC93A885B9858A859B85E5
:103ED800E0E0F0E060E87FE30E94E22D08F062C0D5
:103EE8000E941529A0E0B0E081EE94E40E944F2DD5
:103EF800DF01CB01E0916002F09161026091620202
:103F0800709163020E949D2DEC83FD836E837F83F5
:103F1800AFE0B3E00E948E2CED93FC93A0919F023A
:103F2800AA23AAF0AC81BD818E819F81E0E0F0E0F8
:103F380061EE74E40E94F82CDF01CB01E0919C0251
:103F4800F0919D0260919E0270919F020CC0E091D9
:103F58009C02F0919D0260919E0270919F02AC813B
:103F6800BD818E819F810E94C52C0E94482F0E948E
:103F7800F82CDF01CB01E0E0F0E061E674E40E9498
:103F8800482F0E94F82CA0E0B0E080E090E00E946A
:103F9800482F0E94F82CABE0B3E00E948E2CED93E2
:103FA800FC9308C0E0919C02F0919D02E0930B0302
:103FB800F0930C032C9608950A921A92FA926A9337
:103FC8007A938A939A93AA93BA93EA93FA93EFB758
:103FD800EA931A930A93ACEBB2E0ED91FD91319616
:103FE800FE93EE93AAEBB2E0ED91FD913196FE932C
:103FF800EE93A091BA02B091BB02A830E7E0BE07E9
:1040080040F1E0E0E093BA02E093BB02EB2DA9E1B6
:10401800B0E00E94792FE82DA7E1B0E00E94792F47
:10402800ED2DAAE1B0E00E94792FEA2DA8E1B0E0D9
:104038000E94792FE72DA4E1B0E00E94792FE62DA8
:10404800A5E1B0E00E94792FE92DA6E1B0E00E9439
:10405800792FEB2DFF27662777270E94C52C0E9412
:10406800392FEA2DFF27662777270E94C52C0E9443
:10407800392FED2DFF2766277727E053F84F6F4F2D
:104088007F4F0E94C52C0E94392FE0E0F0E060E4E9
:1040980071E40E94392FE091CA02F091CB020E948C
:1040A8004F2E0E94C52CDF01CB01E0E0F0E068EC68
:1040B80072E40E949D2D0E94392FE091CC02F0916C
:1040C800CD020E944F2E0E94C52CDF01CB01E0E0FB
:1040D800F0E068EC72E40E949D2D0E94392FE09177
:1040E800D802F091D9020E944F2E0E94C52CDF0100
:1040F800CB01E0E0F0E068EC72E40E949D2DDF0166
:10410800CB010E940609E091AC02F091AD02309714
:10411800E1F4E7E0F0E0FA93EA93E6E0F0E0FA93FE
:10412800EA93A9E0B0E00E94472AE8E0F0E0FA93B9
:10413800EA93EBE0F0E0FA93EA93EAE0F0E0FA932E
:10414800EA93ADE0B0E00E94962A689443F8979B02
:1041580002C0AC9801C0AC9AA89B02C0939801C059
:10416800939AE0E43E26A2EBB2E0ED91FD91319600
:10417800FE93EE93A091B202B091B302559734F03A
:10418800E4E1F0E0E093B202F093B302A091B2024E
:10419800B091B3025497C398A8EAB2E00E94172FCF
:1041A800EF5FFF4F6F4F7F4F0E94212FA091A80212
:1041B800B091A9028091AA029091AB02AE31E0E0E1
:1041C800BE07E0E08E07E0E09E0764F0EEE1F0E075
:1041D80060E070E0E093A802F093A9026093AA025D
:1041E8007093AB02A091A802B091A9028091AA0293
:1041F8009091AB02AD31E0E0BE07E0E08E07E0E071
:104208009E0711F40E947D0B26FE14C0A6EBB2E0B7
:10421800ED91FD913196FE93EE93A091B602B09187
:10422800B702DD973CF0E89426F8E0E0E093B602A8
:10423800E093B7027A92A62D0E94B50B8F01E09108
:104248008C02F0918D0260918E0270918F02A0E035
:10425800B0E080EF91E40E94FF2CD8010E94542E18
:104268000E94452F0E94E22D11F008F016C0E0913F
:104278008802F091890260918A0270918B02A0E015
:10428800B0E080EF91E40E94F82CD8010E94542EEF
:104298000E94452F0E94E22D40F4C89B06C0C99B8E
:1042A80004C0CA9B02C0CB9901C02FC0A8EBB2E0E2
:1042B800ED91FD913196FE93EE93A091B802B091E5
:1042C800B9025E970CF1EEE1F0E0E093B802F093EA
:1042D800B902A8989798C39AAA9AA99AAB9A969A53
:1042E800AC9A939AE0E0EA93A0E00E94392BA7EFFA
:1042F800B3E00E94892BE0E0EA93A1E00E94392B09
:104308000E94CF0C689437F807C0E0E0E093B80249
:10431800E093B902E89437F809911991E991EFBF50
:10432800F991E991B991A9919991899179916991B5
:10433800F990199009901895A0E1B0E00E94552FC6
:10434800E093DE02F093DF026093E0027093E102F3
:10435800ACE0B0E00E94552FE093DA02F093DB0264
:104368006093DC027093DD02A8E0B0E00E94592F50
:10437800E093D202F093D302A4E0B0E00E94592F58
:10438800E093CE02F093CF02A6E0B0E00E94592F4E
:10439800E093D002F093D102A0E0B0E00E94592F40
:1043A800E093CA02F093CB02A2E0B0E00E94592F3A
:1043B800E093CC02F093CD02AAE0B0E00E94592F1E
:1043C800E093D802F093D902ABE1B0E00E94592FF4
:1043D800E0930503F0930603ADE1B0E00E94592F86
:1043E800E0930303F0930403A2E2B0E00E94592F84
:1043F800E0930703F0930803A4E2B0E00E94592F6A
:10440800E0930903F0930A030895EFEFEBBBE0E2B2
:10441800EABBE8E0E8BBE7BBEEE1E5BBEFEFE4BBF6
:10442800ECE4E2BBE8EFE1BBE0E0E3BFE2BFECBFF6
:10443800E2ECEFBDEDE0EEBDE0E0EDBDECBDE7BDCB
:10444800E6BDEBBDEFEFEABDE0E0E9BDE8BDE2BDEA
:10445800E5BDE4BDE3BDEBB7E064EBBFE2E0E5BF7B
:10446800E0E0E4BFE0E4EABFE0E0E9BFEBB9E8ED93
:10447800EAB9E6E8E0BDE0E0E0BDE5E0E9B9E0E89A
:10448800E8B9E0E0E0BF0E94FE2BA8EEB3E00E948E
:104498004F2CE0E0EA93E1E0EA93A0E00E94282AAA
:1044A800A0E10E94AD2BA4E6B0E00E944F2C0E9430
:1044B8001218689445F8E89446F847F8E4E5F2E0FD
:1044C800FA93EA93A0E00E94AA06E89437F8949831
:1044D8000895E8E1E1BDE0E0E1BD08951A930A938B
:1044E80025FEC4C1E4E1F0E0FBBDEABDE0E0E093F5
:1044F800BE02E093BF020E944D2BE0919802F0911A
:10450800990260919A0270919B02A091F302B09176
:10451800F4020E94542E0E94992F0CF0C2C0E0E0D1
:10452800E0939402E0939502E0939602E093970259
:10453800689427F80091F3021091F402E091980230
:10454800F091990260919A0270919B02A091F302F6
:10455800B091F4020E94542E0E94992F14F427FC63
:1045680001C098C0A895AEEBB2E0ED91FD913196EF
:10457800FE93EE93A091BE02B091BF02A93CE0E089
:10458800BE07A0F0E0E0E093BE02E093BF02EAB508
:10459800FBB53296FBBDEABDEAB5FBB5E53FA1E048
:1045A800FA0720F0E4EFF1E0FBBDEABD0E94AF1985
:1045B80064DAE0E0EA93A0E00E94392BA6E0B4E0D8
:1045C8000E94892BA091F302B091F4020E945D0D24
:1045D800E0E0EA93A1E00E94392BACE0B4E00E944D
:1045E800892BA0919802B09199020E945D0D97982D
:1045F800A89AA4E9B2E00E94172FEF5FFF4F6F4F10
:104608007F4F0E94212FA0919402B0919502809132
:10461800960290919702A13AE6E8BE07E1E08E077C
:10462800E0E09E0784F1E0E0E0939402E0939502D5
:10463800E0939602E0939702F8017497A091F30231
:10464800B091F402AE17BF072CF0F8017496EA1780
:10465800FB070CF414C00E944D2B689435F896980B
:10466800A2E1B4E00E94892BA8989798A8EBBBE038
:104678000E944F2CE89435F8969A27F804C00091C8
:10468800F3021091F402C89904C0E89427F8A89896
:10469800979854CFE89425F8689426F8A89897989E
:1046A800DBC0E0919802F091990260919A027091B2
:1046B8009B02EC5EFF4F6F4F7F4FA091F302B091CA
:1046C800F4020E94542E0E94942F0CF0C3C0E0E024
:1046D800E0939402E0939502E0939602E0939702A8
:1046E800689427F80091F3021091F402E09198027F
:1046F800F091990260919A0270919B02A091F30245
:10470800B091F4020E94542E0E94942F14F427FCB6
:1047180001C099C0A895AEEBB2E0ED91FD9131963C
:10472800FE93EE93A091BE02B091BF02A93CE0E0D7
:10473800BE07A0F0E0E0E093BE02E093BF02EAB556
:10474800FBB53296FBBDEABDEAB5FBB5E53FA1E096
:10475800FA0720F0E4EFF1E0FBBDEABD0E94AF19D3
:104768000E94411DE0E0EA93A0E00E94392BA6E0F8
:10477800B4E00E94892BA091F302B091F4020E9448
:104788005D0DE0E0EA93A1E00E94392BACE0B4E0D3
:104798000E94892BA0919802B09199020E945D0D08
:1047A800979AA898A4E9B2E00E94172FEF5FFF4FED
:1047B8006F4F7F4F0E94212FA0919402B0919502D4
:1047C8008091960290919702A13AE6E8BE07E1E04F
:1047D8008E07E0E09E0784F1E0E0E0939402E09326
:1047E8009502E0939602E0939702F8017497A091DE
:1047F800F302B091F402AE17BF072CF0F8017496DB
:10480800EA17FB070CF414C00E944D2B689435F886
:104818009698A2E1B4E00E94892BA8989798A8EBF3
:10482800BBE00E944F2CE89435F8969A27F804C00C
:104838000091F3021091F402C89904C0E89427F893
:10484800A898979853CFE89425F8689426F8A898DC
:10485800979802C0E89425F8689426F8A89897983D
:10486800A0E2B0E0E0E0F0E00E94712F0991199118
:104878000895979B02C0AC9801C0AC9AA89B02C04F
:10488800939801C0939AAA9AA99AAB9A35FE02C046
:10489800969801C0969A0895E7E1E71518F0EBE3BA
:1048A800E915A0F5F894E0E0EA93E1E0EA93A0E0E6
:1048B8000E94282AA4EFB1E00E944F2CA7E1B0E0A3
:1048C8000E945D2FEA93A9E1B0E00E945D2FEA9370
:1048D800A8E1B0E00E945D2FEA93AAE1B0E00E944F
:1048E8005D2FAE2F0E94CC2AA4E1B0E00E945D2F7C
:1048F800EA93A5E1B0E00E945D2FEA93A6E1B0E05B
:104908000E945D2FAE2F0E94772A78940895F8941C
:10491800E0DD7BDD7894AAEFB0E00E944F2CE7E061
:10492800F0E0FA93EA93E6E0F0E0FA93EA93A9E07C
:10493800B0E00E94472AE8E0F0E0FA93EA93EBE05F
:10494800F0E0FA93EA93EAE0F0E0FA93EA93ADE054
:10495800B0E00E94962AE8E1E71518F0EBE3E915C4
:1049680010F49ADF1EC0E72DA4E1B0E00E94792F71
:10497800E62DA5E1B0E00E94792FE92DA6E1B0E08F
:104988000E94792FEB2DA9E1B0E00E94792FEA2D42
:10499800A8E1B0E00E94792FED2DAAE1B0E00E94D5
:1049A800792FE89451F850F8C89B06C0C99B04C0F9
:1049B800CA9902C0CB9B01C002C0689451F80E94FA
:1049C8004D2B51FC24C0AEE1B4E00E94892BE0E0FD
:1049D800EA93A1E00E94392BAFE2B4E00E94892B50
:1049E800A0EDB7E00E944F2C0E944D2BA0E4B4E04C
:1049F8000E94892BE0E0EA93A1E00E94392BA1E50F
:104A0800B4E00E94892BA8EEB3E00E944F2C50FE20
:104A18003DC0A2E6B4E00E94892BE0E0EA93A1E061
:104A28000E94392BADE6B4E00E94892BA8EBBBE0CD
:104A38000E944F2CE0E0EA93A0E00E94392BAEE7F9
:104A4800B4E00E94892BE0E0EA93A1E00E94392BB0
:104A5800ACE8B4E00E94892BA8EBBBE00E944F2C85
:104A6800E0E0EA93A0E00E94392BACE9B4E00E94B0
:104A7800892BE0E0EA93A1E00E94392BACEAB4E08C
:104A88000E94892BA8EBBBE00E944F2C51FE0DC061
:104A9800ADEBB4E00E94892BE0E0EA93A1E00E942C
:104AA800392BA2ECB3E00E94892BEFE3F1E0FBBDC8
:104AB800EABDAAE0B0E00E944F2C3EDCA89537FC86
:104AC800E3C10E94242A0E94591753FE06C0E894A5
:104AD80053F80E94BB030E943D0450FE02C051FCE3
:104AE80052C0DADEC6DE979B02C0AC9801C0AC9A11
:104AF800A89B02C0939801C0939A0E94B20D0E948D
:104B0800AF19A1E0B0E00E944F2C0E94461D0E9400
:104B1800660E0E94AA100E94DF120E94F0130E94E3
:104B28009E0CA4ECB2E0ED91FD913196FE93EE93CC
:104B3800A091C402B091C502A536E0E0BE0748F0D6
:104B4800E0E0E093C402E093C5020E94CD190E9400
:104B5800411DA091AC02B091AD02109711F452FE24
:104B680001C001C0BBDC52FE0EC0E4EFF1E0FBBDAA
:104B7800EABDC99B02C0979801C0979ACA9B02C018
:104B8800A89801C0A89A50FEA4C00E944D2BA1E08D
:104B9800B0E00E944F2CA3ECB4E00E94892BCB9B81
:104BA80024C00E945917A1E0B0E00E944F2CE0E019
:104BB800EA93A1E00E94392BA2ECB3E00E94892B72
:104BC8000E94AF19C99B02C0979801C0979ACA9BC7
:104BD80002C0A89801C0A89A0E94411DA091F302A2
:104BE800B091F4020E945D0DDACFE091F302F091EA
:104BF800F402E093CE02F093CF02A4E0B0E00E946A
:104C0800712FE0E0EA93A0E00E94392BA3EDB4E015
:104C18000E94892BE0E0EA93A1E00E94392BA0EEE4
:104C2800B4E00E94892BACEDB5E00E944F2C0E94A5
:104C38004D2BAAEEB4E00E94892BC89B24C00E9489
:104C48005917A1E0B0E00E944F2CE0E0EA93A1E000
:104C58000E94392BA2ECB3E00E94892B0E94AF1965
:104C6800C99B02C0979801C0979ACA9B02C0A8988E
:104C780001C0A89A0E94411DA091F302B091F402CC
:104C88000E945D0DDACFE091F302F091F402E09317
:104C9800D002F093D102A6E0B0E00E94712FE0E0CC
:104CA800EA93A0E00E94392BA8EFB4E00E94892B78
:104CB800E0E0EA93A1E00E94392BA3E0B5E00E946E
:104CC800892BA8EBBBE00E944F2CE89450F80E9477
:104CD8004D2B51FED9C0A0E2B0E0E0E0F0E00E9428
:104CE800712F0E944D2BAD9AAE98AF9AAAEFB0E003
:104CF8000E944F2CC99B35C00E9458180E944F2E05
:104D0800E0939002F0939102609392027093930261
:104D18000E94411DE0E0EA93A0E00E94392BA4EF35
:104D2800B1E00E944F2CADEBB4E00E94892BA0911A
:104D38009002B091910280919202909193020E9408
:104D4800C00BE0E0EA93A1E00E94392BADE9B3E0A3
:104D58000E94892BA091F302B091F4020E945D0D8C
:104D6800C9CFE0919002F091910260919202709106
:104D78009302E093DA02F093DB026093DC02709313
:104D8800DD02ACE0B0E00E94692F0E944D2BAEE03E
:104D9800B5E00E94892BE0E0EA93A1E00E94392B5C
:104DA800A3E0B5E00E94892BA8EBBBE00E944F2C42
:104DB8000E944D2BAAEFB0E00E944F2CC89B35C033
:104DC8000E9458180E944F2EE0939002F09391028F
:104DD80060939202709393020E94411DE0E0EA936F
:104DE800A0E00E94392BA4EFB1E00E944F2CADEB5C
:104DF800B4E00E94892BA0919002B0919102809119
:104E08009202909193020E94C00BE0E0EA93A1E025
:104E18000E94392BADE9B3E00E94892BA091F302DF
:104E2800B091F4020E945D0DC9CFE0919002F0911B
:104E380091026091920270919302E093DE02F093E6
:104E4800DF026093E0027093E102A0E1B0E00E940B
:104E5800692F0E944D2BA4E6B0E00E944F2CAAE1D6
:104E6800B5E00E94892BE0E0EA93A1E00E94392B8B
:104E7800A3E0B5E00E94892BACEDB5E00E944F2C71
:104E8800E89451F80E944D2B19CEFFCF0E943E2F77
:104E98007B816A81F981E88177FB770F67FD716013
:104EA800972F9E5781F078F0983190F4AA27BB2766
:104EB800882708948795B795A7959A95D1F7EA23F7
:104EC800FB23682305C0E8947727EE27FF2766278A
:104ED8006F77769508F4606877F9A991B991899107
:104EE8009991EA17FB076807790797FB08950E94CD
:104EF8003E2F0E942F2F0E944A270E94342F21F410
:104F08000E942A2F0C94EC2ADEF70E942A2FA0E098
:104F1800B0E080E89FE30E94F82C0C94EC2A0E94F1
:104F28003E2F24971A9310E0AD81BE818F8198851A
:104F3800E3E8F9EF62E27EE30E944F2DED83FE8302
:104F48006F837887AD81BE818F819885D0DFAD81F1
:104F5800BE818F8198850E94482F0E94F82CED838E
:104F6800FE836F837887AD81BE818F819885E0E06D
:104F7800F0E060E07FE30E94E22D09F008F40FC042
:104F8800ED81FE816F817885A0E0B0E080E09FE34D
:104F98000E94F82CED83FE836F83788711E0AD8142
:104FA800BE818F819885E0E0F0E060E87EE30E94B2
:104FB800E22D09F008F40AC0E0E0F0E060E07FE3E9
:104FC8000E94F82CED83FE836F837887103051F0B0
:104FD800ED81FE816F8178850E94592CED83FE83D7
:104FE8006F837887ED81FE816F817885AD81BE8181
:104FF8008F8198850E944F2DE983FA836B837C8388
:10500800A1EBB4EC86E292E40E944F2DDF01CB01C4
:10501800EDE1F5EE6DE272E40E94482F0E94F82C53
:10502800A981BA818B819C810E944F2DACE4B3E5A4
:1050380084E091E40E94FF2CAD81BE818F81988528
:105048000E944F2D7F936F93FF93EF93E981FA812D
:105058006B817C81A1E1BDEE8EED9FE30E94FF2C68
:10506800A981BA818B819C810E944F2DAEE5BBE757
:1050780088EA9FE30E94FF2CAF91BF918F919F9187
:105088000E949D2D52C10E943E2F0E942F2FEBEDB2
:10509800FFE069EC7FE30E94F82CDF01CB013FDFE2
:1050A8000C94EC2A0E943E2F2497AC81BD818E81FE
:1050B8009F81E9DF0E94342F0E948A2F99F4AC81E6
:1050C800BD818E819F810E948E2F34F4EFEFFFEF18
:1050D8006FE77FE70C94CA2AEFEFFFEF6FE77FEFE8
:1050E8000C94CA2AAC81BD818E819F8118DFDF01B3
:1050F800CB010E942A2F0E949D2D0C94CA2A0E943F
:105108003E2F2497EC81FD816E817F81AC81BD812A
:105118008E819F810E944F2D0E94342FA5E6B0ED0D
:105128008BEC90E40E944F2DAEE4BFE88AE491E452
:105138000E94FF2CAC81BD818E819F810E944F2DE2
:105148007F936F93FF93EF930E942A2FA0E0BDE611
:1051580089E291E40E94FF2C0E942F2F0E944F2D7C
:10516800AEE4BFE88AE491E40E94FF2CAF91BF91BE
:105178008F919F910E949D2D0C94CA2A0E943E2FC8
:105188000E942F2FEDECF3E164ED7EE30E94E22D07
:1051980018F4B5DF0C94EC2A0E942F2FEAE7F2E806
:1051A8006AE170E40E94E22D09F008F415C00E943B
:1051B8002A2FA0E0B0E080E89FE30E949D2DDF0148
:1051C800CB019DDFABEDBFE089EC9FE30E94482F48
:1051D8000E94F82C0C94EC2A0E942A2FA0E0B0E040
:1051E80080E89FE30E94F82C7F936F93FF93EF93DF
:1051F8000E942A2FA0E0B0E080E89FE30E94FF2CE5
:10520800AF91BF918F919F910E949D2DDF01CB019E
:1052180076DFABEDBFE089E49FE30E94FF2C0C949E
:10522800EC2A0E943E2F24971A9310E0AD81BE818C
:105238008F819885E0E0F0E060E87FEB0E94E22D46
:1052480050F0E0E0F0E060E87FE30E94E22D11F02A
:1052580008F001C005C0EFEFFFEF6FE77FE765C01B
:10526800A885AA235AF4ED81FE816F8178850E9472
:10527800592CED83FE836F83788711E0ED81FE81E1
:105288006F817885AD81BE818F8198850E944F2D71
:10529800A0E0B0E080E89FE30E94482F0E94F82C2D
:1052A800DF01CB010E94022EE983FA836B837C83A2
:1052B800AD81BE818F819885E3EFF4E065E37FE3FC
:1052C8000E94E22D09F008F416C0ED81FE816F817D
:1052D8007885A981BA818B819C810E949D2DDF01EF
:1052E800CB014CDFABEDBFE089EC9FE30E94482F78
:1052F8000E94F82C0DC0E981FA816B817C81AD8117
:10530800BE818F8198850E949D2DDF01CB0136DFFC
:10531800E983FA836B837C83103019F00E94592C3F
:1053280004C0E981FA816B817C81188129960895EE
:105338000E943E2FAB81AA232AF00E942F2F1EDF46
:105348000C94EC2A0E942A2F0E94592CDF01CB01D1
:1053580015DF0E94592C0C94EC2A0E943E2F2497AA
:10536800EC81FD816E817F810E948A2FE9F4E885B6
:10537800F9856A857B850E948A2F29F4EFEFFFEF74
:105388006FE77FE751C0A885B9858A859B850E940C
:105398008E2F2CF4EBEDFFE069EC7FE345C0EBEDDD
:1053A800FFE069EC7FEB40C0EC81FD816E817F817D
:1053B800A885B9858A859B850E949D2D0E94342FDA
:1053C800AC81BD818E819F810E948E2F8CF4AB852C
:1053D800AA2322F00E942F2FD1DE26C00E942A2F56
:1053E8000E94592CDF01CB01C9DE0E94592C1CC038
:1053F800AB85AA2382F00E942A2F0E94592CDF0134
:10540800CB01BCDEABEDBFE089E490E40E94482FFD
:105418000E94F82C09C00E942F2FB0DEABEDBFE030
:1054280089E490EC0E94FF2C2C960895BA93AA93D5
:10543800E991F99130971AF4E095F095319608952D
:10544800E5B7EF77E5BF0895AA93EA81E370EA83A9
:10545800E981E03019F0EA81E061EA83E881E0302F
:1054680019F0EA81E068EA830E94032CA0ED0E940B
:10547800372CA7E00E94372CAA810E94372C0E9463
:10548800122C0C949A2BBA93AA930E94032CA0ED89
:105498000E94372CA0E00E94372C0E94122C0E94F8
:1054A800032CA1ED0E94372CA1E00E941C2CAE2FEA
:1054B8000E94E72BA881B981EC93A1E00E941C2CE3
:1054C800AE2F0E94E72BAA81BB81EC93A0E00E943B
:1054D8001C2CAE2F0E94E72BAC81BD81EC930E945F
:1054E800122C26960895AA930E94032CA0ED0E94E0
:1054F800372CA0E00E94372CA8810E94F42BAE2FF5
:105508000E94372CA9810E94F42BAE2F0E94372CC1
:10551800AA810E94F42BAE2F0E94372C0E94122CD5
:105528000C949A2BBA93AA930E94032CA0ED0E9484
:10553800372CA3E00E94372C0E94122C0E94032CC7
:10554800A1ED0E94372CA1E00E941C2CAE81BF81E6
:10555800EC93A1E00E941C2CAE2F0E94E72BAC819B
:10556800BD81EC93A1E00E941C2CAE2F0E94E72B7A
:10557800AA81BB81EC93A0E00E941C2CAE2F0E9454
:10558800E72BA881B981EC930E94122C28960895E4
:10559800AA930E94032CA0ED0E94372CA3E00E943E
:1055A800372CAB810E94372CAA810E94F42BAE2F96
:1055B8000E94372CA9810E94F42BAE2F0E94372C11
:1055C800A8810E94F42BAE2F0E94372C0E94122C27
:1055D80024960895FFE0FA95F1F70895A7B3AF7000
:1055E800A7BBC19AC098F6DFC29AF4DFA6B3C298E7
:1055F800F1DFC29AEFDFC298A7FDF5CF0895A07F2B
:10560800AB2BA8BBC29A0E94EE2AC2980E94EE2A2F
:105618000895AA93C198A7B3A76FA7BBB8B3BF70E3
:10562800A881EDDFA881A295EADFC19A0C94E52B49
:10563800AA930E94F22AA981ECDF0E94F22AC09A5A
:10564800A881E7DF24C0C29A0E94EE2AE6B3C29876
:105658000E94EE2AE07F08950E94EE2AF4DFAE2F22
:10566800F2DFC198E295EA2B0895AA930E94F22AE4
:10567800E881F0E0E556FC4FE081A981AE0F0E9479
:105688000D2BE981E0939F03E881E093A003229624
:1056980008950E94F22AA2E00E940D2B0E94F22A8D
:1056A800ACE00E940D2B0E94F22AA1E00E940D2B73
:1056B800E0E0E093A003E0939F030895AA93EF939B
:1056C800FF93A8816894AA3039F0E894E091A10387
:1056D800A0919F03AE1758F0E091A003EF5FE0930D
:1056E800A003E0E0EA93A091A003BFDF56F0E091A9
:1056F8009F03EF5FE0939F0371DFC09AA8810E9428
:105708000D2BFF91EF910C94E52BBA93AA931A9362
:10571800E981FA813196E983FA833197E4911E2F62
:10572800E03019F0A12FCADFF3CF1881239608952E
:10573800AA27BB271197F1F70895AA93C198A7B391
:10574800A76FA7BBB8B3BF70A8810E94032BC19AEB
:1057580038C0AA93C298C098E881E093A103E058A2
:10576800E0939D03E881E054E0939E03E1DFA0E32A
:10577800E4DFDEDFA0E3E1DFDBDFA0E3DEDFD8DFAD
:10578800A0E2DBDFD5DFA8E20E940D2BD1DFA4E089
:105798000E940D2BCDDFA5E80E940D2BC9DFA7B312
:1057A800AF70A7BBC19A0E94302BE53011F0E0E042
:1057B80008C00E94F22AA6E00E940D2B0E944D2BE1
:1057C800E1E021960895AA93E881E295EF70AE2F63
:1057D800AA0FAA0FEA0FEE0FA991AF70EA0F08956A
:1057E800AA93A991EE27AA5012F0E05FFCCFA65F1A
:1057F800EA0F0895DD98DC98D59AD49815C0D49806
:10580800D598EE270000CC9B0895CD9B089504D031
:10581800D49A02D0D59AE1E062E107C0D49AD59A29
:1058280003D0D598F9DFD49865E26A95F1F7089521
:1058380078E0D598F1DFCD9BFECFEEDF8894CC9948
:105848000894D59AF1DFEE1F7A9599F77A2F772386
:1058580011F4D49801C0D49ADFDFD598E5DFD59A42
:10586800DBDFD498D9CF78E0AA0F10F4D49801C020
:10587800D49ADADFD598D0DFCD9BFECFCDDFD59A8D
:105888007A9591F7D498C8DFD598CEDFE1E0CC9926
:10589800EE27D59AC1CF109639F08DEC9AE0019792
:1058A800F1F7A8951197C9F70895309760407040AF
:1058B80009F070580895552342F4503811F4E0FF68
:1058C80004C03196691F791F6BF050E8572711F40F
:1058D8005F93CFC05F3F31F0660F000C5795679517
:1058E800752F08955F9300200AF0CFC0C8C050E814
:1058F800192E1522880F991F9527550F879550E85F
:10590800072E0522660F771F7527550F679508958F
:10591800689401C0E8945F93F2DF703818F07F3F15
:1059280008F4A7C056E1571BAAF4519558300EF455
:10593800593030F0EFEFFFEF6FEF7FE777F91AC0DC
:1059480077275523B9F0EE0FFF1F661F771F5A956B
:10595800D1F710C07727583028F0EF2FF62F672F90
:105968005850F9CF552331F076956795F795E79517
:105978005A95D1F700200AF481D15F91089568946F
:1059880001C0E894309760407040B1F0002426F0E0
:10599800772312F4009472D1172E7EE1112032F091
:1059A8007A95EE0FFF1F661F111CF9CFEF2FF62F08
:1059B800612D5F938ADF5F9108954F93AF01FD01D9
:1059C800DA01AB01BC01CA01402D012C142E4F9104
:1059D8000895EA0FFB1F681F0895E095F0956095FC
:1059E800EF5FFF4F6F4F08955F9381DF903871F13C
:1059F80050E8152604C05F937ADF903839F1703883
:105A080021F1572F591B2BF112F4D7DFFACF583158
:105A180018F0AA27BB278827583028F0AB2FB82FB3
:105A280088275850F9CF552329F08695B795A7951B
:105A38005A95D9F7502D512572F0CBDF38F4679578
:105A4800F795E795739513F420C0B7DF3EDF5F91B4
:105A58000895D8F7FBCFEA1BFB0B680B51F010F445
:105A68000094BBDF662392F3EE0FFF1F661F7A9543
:105A7800CBF7EE27FF27662777275F910895EFEF8B
:105A8800FFEF6FE77FEF5F910895EFEFFFEF6FE7AD
:105A98007FE75F9108955F932ADF703851F390385C
:105AA80041F301240894791F23F41CF300203AF3EE
:105AB800ECCF0F921F932F933F934F9311272227D9
:105AC8009927689FA0018F9F302D410D591F6B9F0B
